:100000000C9460030C947D030C947D030C947D038D
:100010000C947D030C947D030C947D030C947D0360
:100020000C947D030C947D030C943C1F0C94781E5F
:100030000C94E9180C947D030C947D030C947D03BF
:100040000C947D030C947D030C947D030C947D0330
:100050000C947D030C9477180C947D030C947D0311
:100060000C947D030C947D030C947D030C947D0310
:100070000C947D030C947D030C947D030C947D0300
:100080000C947D030C947D030C947D030C947D03F0
:100090000C947D030C947D030C947D030C947D03E0
:1000A0000C947D030C947D030C947D039D06BA068D
:1000B000BF06C406C906CE06D306D806DD06E2068C
:1000C000E7062904FF060207050708070B070E07C6
:1000D00010072607CA07CA07080808085108710848
:1000E000450A9E0AB3089F09B109B109A80BAB0BD9
:1000F000AE0BB10BB40BB70BBA0B151118112711BE
:100100001B11201125112311891CB01C501EB01C7D
:10011000501EF81C1B1D501E191E2C1EBB24BB2478
:10012000CE24CE24C424CE24CE24CE24BB24BB246F
:10013000C924CE24CE24C9242E002B002961E1003D
:10014000354100001E00140004001D0034004D0065
:100150001F001A0016001B00E3054C0020000800D9
:100160000700060050002A002100150009001900B0
:100170004F004A00220017000A0005000000E300BB
:100180002F0A01530000000F0000E200301A015353
:10019000000000070000E60023001C000B00110017
:1001A0000000E700240018000D00100052004B0072
:1001B00025000C000E00360051002C002600120015
:1001C0000F0037002F0028002700130033423800AB
:1001D00030004E002D0031003468E5000151000070
:1001E0002900010001000100010000003A001E0288
:1001F00020022202010001003B001F022102230213
:100200000100C95C3C002F0226022F000100CA5CDD
:100210003D00300227023000010001003E003102A3
:10022000350035020000C35C0100010000001350DE
:1002300000000A5D01000100000001000000C25C36
:100240003F0052005100240200000B5D40002400DA
:1002500021001E00010001004100250022001F00B6
:100260003700C55C42002600230020002700C65C42
:10027000430025022E0231002E00010044004500FB
:100280000100010001000000010001000100010067
:100290000100000001000100010001000100010057
:1002A00001000100F2000100010001000100F00066
:1002B000F1000100F400010001000100F300010061
:1002C000F500010001000100010001000000010033
:1002D0000100010000000100000001000100010018
:1002E0000000010000000100010001000100010008
:1002F000000001000100010001000100A90001004F
:10030000010001000100AC00AA00B60001000100DC
:100310000100AB00A8000100010001000100010084
:100320000100010001000100AE0001000100000019
:1003300000010101010101010101020202020202A8
:10034000020202030303030303030304040404047B
:100350000404050505050506060606060707070742
:100360000708080808090909090A0A0A0B0B0B0CF7
:100370000C0C0D0D0D0E0E0E0F0F0F101011111194
:100380001212131314141515161617171818191915
:100390001A1A1B1B1C1D1D1E1E1F2020212222237A
:1003A0002424252626272829292A2B2C2D2D2E2FBB
:1003B00030313232333435363738393A3B3C3D3ED2
:1003C0003F404142434445464748494A4C4D4E4FC1
:1003D00050515354555658595A5B5D5E5F61626483
:1003E000656668696B6C6D6F7072737577787A7B10
:1003F0007D7E8082838587888A8C8E8F9193959667
:10040000989A9C9EA0A2A3A5A7A9ABADAFB1B3B586
:10041000B7BABCBEC0C2C4C6C9CBCDCFD1D4D6D862
:10042000DBDDDFE2E4E7E9EBEEF0F3F5F8FAFDFF00
:1004300000047F3F1F643214643214783C1E1E1483
:100440000A0505010902A10185020901A1000509AA
:1004500019012905150025019505750181029501F0
:10046000750381010501093009311581257F950248
:100470007508810609381581257F95017508810663
:10048000050C0A38021581257F950175088106C083
:10049000C005010980A10185031A81002A83001685
:1004A0000100260300950175108100C0050C0901AB
:1004B000A10185041A01002A9C02160100269C0253
:1004C000950175108100C005010906A1018505058A
:1004D0000719E029E7150025019508750181020536
:1004E00007190029EF1500250195F0750181020516
:1004F000081901290595057501910295017503916A
:1005000001C005010906A101050719E029E7150049
:10051000250195087501810295017508810105077E
:10052000190029FF150026FF0095067508810005B2
:100530000819012905950575019102950175039129
:1005400001C009023B00020100A0FA0904000001F9
:10055000030101000921110100012240000705816A
:100560000308000A09040100010300000009211129
:1005700001000122C0000705820320000A120110B9
:100580000100000008EDFE07130100010203010451
:10059000033000000016034500720067006F00641E
:1005A000006F007800200045005A00000008035A40
:1005B0000053004100000004030904FFAA7F5540D6
:1005C0002223252628292A2C2D2F30323335363860
:1005D0003A3B3D3E4042434547494A4C4E505153B9
:1005E0005557595A5C5E6062646668696B6D6F71DD
:1005F000737577797B7D7F81838587898A8C8E90DF
:10060000929496989A9C9E9FA1A3A5A7A8AAACAEE7
:10061000AFB1B3B4B6B8B9BBBCBEBFC1C2C3C5C627
:10062000C7C9CACBCCCDCED0D1D2D2D3D4D5D6D7D0
:10063000D7D8D9D9DADADBDBDBDCDCDCDCDCDDDD0E
:10064000DDDDDCDCDCDCDCDBDBDBDADAD9D9D8D7FE
:10065000D7D6D5D4D3D2D2D1D0CECDCCCBCAC9C7A0
:10066000C6C5C3C2C1BFBEBCBBB9B8B6B4B3B1AFD7
:10067000AEACAAA8A7A5A3A19F9E9C9A9896949277
:10068000908E8C8A89878583817F7D7B797775734E
:10069000716F6D6B6968666462605E5C5A5957552C
:1006A0005351504E4C4A4947454342403E3D3B3AE8
:1006B0003836353332302F2D2C2A2928262523226F
:1006C00011241FBECFEFDAE0DEBFCDBF12E0A0E005
:1006D000B1E0EEEFF4E502C005900D92A035B10750
:1006E000D9F723E0A0E5B2E001C01D92A73DB20713
:1006F000E1F70E9463130C947D2A0C9400008F9202
:100700009F92AF92BF92CF92DF92EF92FF920F93A0
:100710001F93CF93DF93CDB7DEB728970FB6F8942A
:10072000DEBF0FBECDBFFC01F080118183819481BB
:10073000892B09F437C71F3F21F40FEFF01609F496
:1007400031C76F0185E0DE01119601900D928A9507
:10075000E1F7F601228189819A81222349F00E94E2
:10076000461A082F682F89819A810E94BF1A03C0F8
:100770000E94921A082F26E0129FF001112434E5FE
:10078000039FE00DF11D1124EF0DF11DEE0FFF1F72
:10079000E85CFE4F05911491F60182810930FDE578
:1007A0001F0709F040C0882309F468C090916002D7
:1007B00081E0890F8770987F853020F4892B8093A2
:1007C000600202C0909360028091600287702FEFF8
:1007D000829FC001112495958795959587959927B6
:1007E000909389008093880090938B0080938A0077
:1007F00090938D0080938C00409160025091610233
:1008000060916202709163028FE090E00E94D928AB
:1008100060917502709176028091770290917802D2
:100820000E94B6102BC00A303DE5130741F00B3093
:100830009DE5190719F5882309F4B4C60AC0882371
:1008400009F4B0C69091500281E08927809350024C
:10085000A9C681E028960FB6F894DEBF0FBECDBFC3
:10086000DF91CF911F910F91FF90EF90DF90CF908C
:10087000BF90AF909F908F900C94A20CF601828154
:10088000882319F1033EECE51E07C1F050F4013E48
:100890002CE5120781F0023E3CE51307B1F481E03C
:1008A00010C0043E8CE5180759F0053E9CE5190779
:1008B00061F484E006C010925C0205C082E001C0D1
:1008C00083E080935C020E94790D17FF71C0F601EE
:1008D0008281882309F46CC0809142038093510285
:1008E0001092420380915C02813071F048F08230B6
:1008F000C1F08430E1F486EE0E945D2788E115C0E6
:1009000082EE0E94702713C083E00E94D72688E100
:100910000E94702788E10E94F62683E00E94CC2680
:1009200006C082EE0E94702787E50E945D278FE354
:100930009CE90197F1F700C000007801E894F7F80E
:100940005CE0A52EB12CC7010A2C02C096958795B4
:100950000A94E2F7282F2F7041F0822F90E02A307E
:1009600010F44D9604C0069702C087E290E00E9402
:100970005D2794E0A91AB108ECEFAE16EFEFBE06C2
:1009800011F780915C02813039F040F0823031F013
:10099000843051F488E206C08CE204C082EE0E94EA
:1009A000F62602C00E945D27809151028093420387
:1009B000033FFCE51F07B1F180F4083D3CE5130758
:1009C000C9F0093D8CE51807C9F1073D9CE51907F9
:1009D000C1F526E241EE61EE10C0053FECE51E07D1
:1009E00049F120F1063F2CE5120759F527E245EEC3
:1009F00066EE03C027E245EE65EEC60128960FB607
:100A0000F894DEBF0FBECDBFDF91CF911F910F9144
:100A1000FF90EF90DF90CF90BF90AF909F908F901E
:100A20000C94CD2326E241EE60EEE7CF27E245EEBF
:100A300064EEE3CF26E241EE62EEDFCF28E241E052
:100A4000DBCFF6019281992309F44AC11092520238
:100A50000230FCE51F0708F42DC106312CE5120712
:100A600038F098012A5F3C452730310508F022C153
:100A70000E94751990937302809372020F303CE5C7
:100A8000130709F4CFC008F042C008309CE51907ED
:100A900009F4A8C0F0F40430FCE51F0709F490C085
:100AA00068F402303CE5130709F486C003301C45A6
:100AB00009F0DFC0809172028260D9C006309CE5E7
:100AC000190709F487C008F089C080917202886014
:100AD000CEC00B30FCE51F0709F495C068F409305F
:100AE0003CE5130709F482C00A301C4509F0C1C077
:100AF00080917202886080C00D309CE5190709F46E
:100B000086C008F087C0809172028D7FB0C00A3F16
:100B1000FCE51F0709F457C050F502313CE5130707
:100B200009F488C068F400319CE5190709F47EC017
:100B300001311C4509F09DC0809172028F7B97C0E6
:100B40000431FCE51F0709F487C008F479C00531BA
:100B50001C4509F08EC08091720282FB222720F989
:100B600091E0922790FB82F990FB83F980C00D3FC2
:100B70008CE5180709F452C058F40B3FECE51E074A
:100B800029F10C3F1C4509F074C08091730260C0CC
:100B90000F3F2CE5120709F458C080F101151D45DF
:100BA00009F067C080917302982F909591708E7FA5
:100BB000892B90FB81F94DC080917202816057C0F2
:100BC0008091720219C0809173021BC080917302E0
:100BD00082603FC080917202806149C08091720240
:100BE000806245C080917202806441C00E94B72635
:100BF0008091720280683BC0846039C0809173022A
:100C00008260816026C0809172028E7F30C08091A8
:100C1000720219C080917202877F29C0809173028D
:100C20008D7F17C0809172028F7E21C080917202E9
:100C30008F7D1DC00E94B726809172028F7717C0EA
:100C400080917202877F8B7F12C0809173028D7FAB
:100C50008E7F809373020DC00E94B726809172022E
:100C600087FB222720F991E0922790FB87F9809358
:100C70007202609172021091730284E090E00E940F
:100C8000C728612F81E290E00E94C72828960FB6FE
:100C9000F894DEBF0FBECDBFDF91CF911F910F91B2
:100CA000FF90EF90DF90CF90BF90AF909F908F908C
:100CB0000C94B726809142030631FCE51F0789F5A5
:100CC0008A7A91E009F490E090935302911102C066
:100CD00069E201C065E380EB92E00E943D190DC01E
:100CE00006311C4509F00DC180915302811158C491
:100CF00069E280EB92E00E94121928960FB6F894F0
:100D0000DEBF0FBECDBFDF91CF911F910F91FF903E
:100D1000EF90DF90CF90BF90AF909F908F900C940A
:100D2000001A8272F801E25CFC45E431F10508F03A
:100D30008FC0EA5AFF4F0C9431298091900280FFB6
:100D400014C028960FB6F894DEBF0FBECDBFDF915A
:100D5000CF911F910F91FF90EF90DF90CF90BF90B8
:100D6000AF909F908F900C949E1081608093900222
:100D7000869570CD45EA5CE06EEA7CE02CC04EEAD8
:100D80005CE065EA7CE027C048E55BE061E67BE08B
:100D900022C041E65BE068E57BE01DC040E45BE02B
:100DA0006CE47BE018C04CE45BE060E47BE013C0E3
:100DB00048E25BE064E37BE00EC044E35BE068E2B2
:100DC0007BE009C04CE35CE06DE47CE004C04DE4F2
:100DD0005CE06CE37CE028960FB6F894DEBF0FBEB3
:100DE000CDBFDF91CF911F910F91FF90EF90DF90DA
:100DF000CF90BF90AF909F908F900C94D42265E0DD
:100E000082E010C068E086E00DC06EE089E00AC0B4
:100E100064E18FE007C067E185E104C088E11ACD95
:100E200062E289E128960FB6F894DEBF0FBECDBF0F
:100E3000DF91CF911F910F91FF90EF90DF90CF90B6
:100E4000BF90AF909F908F900C94C32283E202CD0D
:100E50000115ECE51E07C1F00E3D1C4509F051C01F
:100E600028960FB6F894DEBF0FBECDBFDF91CF91AD
:100E70001F910F91FF90EF90DF90CF90BF90AF90B8
:100E80009F908F900C9486190E94B7260FEF14E361
:100E90002CE0015010402040E1F700C00000F89421
:100EA00081E08093E00080E28093D8001092C90036
:100EB0008FE19EE40197F1F700C000001DBA109287
:100EC00068001CBC10BE1FBA10927A0010926E000F
:100ED00010926F0010927100109272001092C9006F
:100EE0001092BC0014B817B81AB81DB810BA1092F6
:100EF000BC0015B818B81BB81EB811BA0C94003F46
:100F000051C3F60100811181992349F0C8010E9463
:100F1000461AF82E682FC8010E94BF1A04C0C801E3
:100F20000E94921AF82EB8018F2D0E947F0D182F63
:100F3000382FF601258122952F7002810111109220
:100F4000410380913F038770A9F0002399F080E26C
:100F5000810F883078F082E02F8338879E830E944B
:100F6000201B80913F038770EE24E3942F81388506
:100F70009E818111E12CA92EA2944FE0A422B12CD4
:100F8000FCE0AF16B10408F0D9C2F501E659FF4FF5
:100F90000C943129892F807F9F70F92E882319F0B6
:100FA000F29480EFF8220023B9F0FF2009F457C231
:100FB00080E2810F883010F0311106C09091420319
:100FC000F92AF092420305C090914103F92AF09268
:100FD00041030E94001A43C2812F38870E94F626DF
:100FE0003885FF2009F4AAC2105EF094183010F082
:100FF000311106C090914203F922F092420305C0DC
:1010000090914103F922F09241030E94001A96C286
:10101000492F407F892F8F70403211F08295807F59
:10102000332319F03130E9F025C0002381F03091ED
:101030004303222351F0213041F4982F932B391789
:1010400009F47CC29093430379C2832B17C02223F7
:1010500019F0213009F472C28E830E94FA198E8130
:101060001DC0002321F0223008F068C207C0211102
:1010700065C214C0002329F02111F1C10E94EC26A1
:101080005DC2222359F0193309F0FBC10FEF27EE9F
:1010900033E0015020403040E1F7F1C10E94E126E9
:1010A0004DC2292F26952695237030E02115310554
:1010B00021F02130310559F041C2002319F0812F70
:1010C000937002C080E090E00E94A12240C2002301
:1010D00019F0812F937002C080E090E00E948B2273
:1010E00036C20023F9F0153F51F0163F71F0143F5E
:1010F000A9F4809154029091550281600BC08091B7
:10110000540290915502826005C0809154029091E2
:10111000550284609093550280935402812F0E945F
:101120000F181EC0153F51F0163F71F0143FA9F47F
:1011300080915402909155028E7F0BC08091540291
:10114000909155028D7F05C0809154029091550277
:101150008B7F9093550280935402812F0E944517F4
:101160000E94D318F4C1892F837009F070C0011157
:10117000ECC1812F829586958770880F880F412F4B
:101180004F7050E060E070E04A015B01082E04C03F
:10119000880C991CAA1CBB1C0A94D2F714FF12C01D
:1011A0000FE010E020E030E004C0000F111F221F0C
:1011B000331F8A95D2F7B901A801409550956095E3
:1011C000709503C040E050E0BA01969596959370F3
:1011D000892F90E08230910529F183309105C9F083
:1011E0000091440310914503209146033091470339
:1011F000019759F0482959296A297B29CB01BA015D
:1012000060237123822393230AC0802A912AA22A71
:10121000B32ACB01BA01682979298A299B290E941E
:101220005A1B93C1482959296A297B298091440373
:1012300090914503A0914603B09147038A019B0119
:10124000082719272A273B27C901B801E8CF00231F
:1012500019F0892F817001C08695882309F475C122
:10126000812F829586958770880F880F412F4F7048
:1012700050E060E070E04A015B01082E04C0880C79
:10128000991CAA1CBB1C0A94D2F714FF12C00FE0D1
:1012900010E020E030E004C0000F111F221F331FB8
:1012A0008A95D2F7B901A80140955095609570953F
:1012B00003C040E050E0BA01969596959370892F4F
:1012C00090E082309105E9F08330910579F1009149
:1012D0007502109176022091770230917802019781
:1012E00059F0482959296A297B29CB01BA01602381
:1012F00071238223932320C0802A912AA22AB32A11
:1013000015C0482959296A297B2980917502909135
:101310007602A0917702B09178028A019B0108279A
:1013200019272A273B27C901B80106C0CB01BA01FA
:10133000682979298A299B290E94EF1A06C19F7082
:10134000F92E002339F0892F0E94391B812F0E942A
:10135000EC26FBC0812F0E94E1268F2D0E94FB1AF4
:10136000F4C0812F323FC9F128F4303F49F0313FBA
:1013700079F170C0333FC1F1343F09F44DC06AC008
:10138000002311F12111DAC0292F2F7181E090E0A3
:10139000A0E0B0E0AC01BD0104C0440F551F661FC2
:1013A000771F2A95D2F78091750290917602A091CD
:1013B0007702B09178028A019B01082719272A2712
:1013C0003B27C901B80125C0223008F0B7C0DCCFE7
:1013D000002329F0892F8F712EC00023D9F3892F84
:1013E0008F710E94FB1AAAC0002381F0292F2F7150
:1013F00081E090E0A0E0B0E0BC01CD0104C0660F48
:10140000771F881F991F2A95D2F703C060E070E00C
:10141000CB010E94EF1A92C0002381F0192F1F7197
:10142000812F0E94391B28E0129FC0011124836084
:1014300080933F03812F0E94391B80C081E02F835E
:101440000E94201B2F81223008F478C082E00E9485
:10145000201B74C0002339F0222309F4BBCF812F55
:101460000E9470276BC0222309F4B9CF893349F455
:101470003FEF87EE93E0315080409040E1F700C0AD
:101480000000812F0E94F62659C0323FB1F028F4A7
:10149000303F49F0313FF9F028C0343FB9F058F0FF
:1014A000353F71F022C0002309F451C09091D2035E
:1014B00081E0892708C081E008270093D20347C054
:1014C000011145C081E08093D20341C001113FC0AA
:1014D0001092D2033CC0002329F08091D1038823CD
:1014E00029F329C0222311F332C08091D103222392
:1014F000C1F0882341F09091D20381E08927809345
:10150000D2031092D103812F002319F00E9470277B
:101510001EC00E94F62686E0F60111928A95E9F730
:1015200016C08823A1F0011112C09091D20381E06E
:1015300089278093D2031092D10309C0F8E0AF1A33
:10154000B10804E0A016B10410F40E94B722EE2006
:1015500049F180913F0380FD25C0F60112828595F7
:10156000859585950E94391BC6010E947F03809155
:101570003F0385958595859528960FB6F894DEBF2F
:101580000FBECDBFDF91CF911F910F91FF90EF90D4
:10159000DF90CF90BF90AF909F908F900C94FB1AEC
:1015A00065E3A7CB28960FB6F894DEBF0FBECDBF7C
:1015B000DF91CF911F910F91FF90EF90DF90CF902F
:1015C000BF90AF909F908F9008959091720292FF7C
:1015D0000DC0282F2871283019F4877F846006C039
:1015E000282F2471243011F48B7F886093FF0DC065
:1015F000282F2871283119F4877E846106C0282F8E
:101600002471243111F48B7E88612091730220FFB4
:101610000DC0382F3871383019F4877F816006C0CB
:10162000382F3171313011F48E7F886021FF0DC069
:10163000282F2871283119F4877E816106C0282F50
:101640002171213111F48E7E886194FD877E089589
:10165000E0E9F2E043812CE0421B08F440E021E0A5
:10166000628181810C943123E0E9F2E043812CE036
:10167000420F08F44FEF21E0628181810C94312305
:10168000E0E9F2E062812FEF621B08F460E021E004
:10169000438181810C943123E0E9F2E062812FEFF4
:1016A000620F08F46FEF21E0438181810C943123B4
:1016B000E0E9F2E0818121E0438162818C500C9469
:1016C0003123E0E9F2E0818121E043816281845F9E
:1016D0000C943123CF93E82F873080F58091060159
:1016E00090910701892B09F047C0CE2F64E670E086
:1016F00080E40E9403289093070180930601892BC0
:10170000D1F464E670E082E10E945A2890930701C8
:1017100080930601892B79F481E090E001C0880F65
:10172000CA95EAF764E670E080950E945A28909383
:10173000070180930601CF910C94AF2890E0FC0143
:101740003797E730F105C0F4EA58FF4F0C94312980
:10175000209A289811C0219A29980EC0229A2A9876
:101760000BC0239A2B9808C0529A5A9805C0539AD6
:101770005B9802C03E9A4698CF910895CF938730E8
:1017800008F03FC08091060190910701892B09F074
:1017900041C064E670E080E40E9403289093070152
:1017A00080930601892B11F0C0E027C064E670E049
:1017B00083E10E945A289093070180930601892BA8
:1017C00099F764E670E081E40E9403289093070192
:1017D00080930601892B41F784E690E00E948A28D5
:1017E00097FF05C09093070180930601DDCFC82FB6
:1017F000C09510920701109206010E94AF288C2F0D
:101800000AC09FB18FB1807F869586959370892B92
:10181000809501C080E0CF91089580919002282F9B
:10182000269530E02115310519F48170826005C0DC
:101830002532310524F081708864809390020895E8
:10184000CF93DF9300D000D0CDB7DEB7AB01BC01A2
:1018500049835A836B837C830E940D0C49815A8192
:101860006B817C8188E090E00F900F900F900F903B
:10187000DF91CF910C94D92880919402882319F09C
:1018800081508093940260919002709191028091B6
:101890009202909193020C94200C809194028330D8
:1018A00018F48F5F8093940260919002709191027E
:1018B00080919202909193020C94200C909190024E
:1018C00090FF36C09170811102C0926006C08532CF
:1018D00010F0986402C0880F982B909390026623B2
:1018E00051F06091900270919102809192029091DA
:1018F00093020E94200C60919002669570E04BE08C
:1019000050E083E191E00E94702A892B19F0109237
:10191000960202C00E943A2481E080938D0220E06A
:101920004091930260919202809191020C94312334
:101930000895E0E9F2E080818160808360E086952F
:101940000C945E0C61E00C945E0C80919002869584
:10195000815009F484E261E00C945E0C8091900265
:1019600086958F5F853208F081E061E00C945E0C13
:10197000E0E9F2E083E0808311828FEF828383834A
:10198000148260817181828193810C94200CBF92BA
:10199000CF92DF92EF92FF920F931F93CF93DF933B
:1019A000E82EF62EE901E42FF0E0611106C0E05DBB
:1019B000FC4FE491BE2E8E2F73C0262F30E0E05DE9
:1019C000FC4FE491FE2FCE2ED12C46E0849FC00127
:1019D00011240FEF10E0B8010E9409294BEA4603D9
:1019E000D001479FB00D1124AE0DB11DAE0DB11D3C
:1019F0008A2F880FA80FC801821B930BC89EA001D5
:101A0000C99E500DD89E500D1124B52EAF9DC0011A
:101A10001124892F99277801E81AF90AC701C89E6D
:101A20007001C99EF00CD89EF00C1124C8018A1BCD
:101A30009109DC01A29FC001A39F900DB29F900D60
:101A40001124892F9927081B190BC09E9001C19E54
:101A5000300DD09E300D1124832F6230710591F02E
:101A60004CF461157105E1F061307105B9F48E2F08
:101A7000EF2D16C06430710569F044F066307105D1
:101A800079F00CC08E2FE52FB32E0AC0E52FBF2EA4
:101A90008F2D06C0852FBE2EE32F02C0852FBF2CB1
:101AA000E9838883BA821B82DF91CF911F910F91C6
:101AB000FF90EF90DF90CF90BF900895CF93DF938A
:101AC00000D000D0CDB7DEB79091900290FF0AC051
:101AD0009E012F5F3F4F0E94C70C4B8169818A8115
:101AE0000E94DA220F900F900F900F90DF91CF910C
:101AF000089560915C028CE090E00C94C728CF932D
:101B0000DF9326E0729FF001112444E5849FE00DED
:101B1000F11D1124E60FF11DEE0FFF1FE85CFE4FD3
:101B2000C591D491CE01C238D10569F1B0F4C13369
:101B3000D10509F475C048F4C932D10509F469C06A
:101B4000CA32D10509F473C085C0C533D10509F483
:101B500059C0C933D105B9F07DC0C33ED10571F17B
:101B600038F4C03ED105B1F0C23ED10511F172C0CA
:101B7000C63ED105B9F1C73ED105C9F1C43ED10574
:101B800009F068C024C04091720240FD5DC041FD73
:101B90005BC060C02091720220FD50C02091730292
:101BA00020FF54C18091720284FD4EC183EE90E00B
:101BB0004DC12091720222FF49C1F4CF809172027F
:101BC00082FD3FC08091730280FD3EC0EBCF20912B
:101BD000730221FF3BC18091720284FD35C187EE03
:101BE00090E034C12091720223FF30C1F4CF809184
:101BF000720283FD2CC08091730281FFECCF84EED2
:101C000090E024C12091720225FF20C189E290E07A
:101C10001DC12091720225FF19C185E390E016C114
:101C20002091720226FF12C18AE290E00FC120913A
:101C3000720226FF0BC181E390E008C189E390E0C6
:101C400005C182EE90E002C180EE90E0FFC086EE1A
:101C500090E0FCC0C11552E5D50708F074C0C1156D
:101C600021E5D20728F09C2F8827816F906AEEC06B
:101C7000C83ED10570F5C03ED10508F0E7C0C83AAE
:101C8000D105B8F4C53AD10550F08C2F855AE82F0C
:101C9000F0E0E05EFE4F808190E09064D7C0C130FC
:101CA000D10509F4D3C008F4CFC0249708F4CCC000
:101CB000CDC0CF3BD10508F0C7C08C2F885AE82F84
:101CC000F0E0EE0FFF1FED5DFE4F80819181946487
:101CD000BDC0C11540E2D40760F4C11551E0D5077D
:101CE00008F0B4C0C03FD10508F4AEC0CE01906585
:101CF000ADC0C11580E4D80708F4A6C0C11590E5B1
:101D0000D90720F4CE019F70906AA0C04C2F437079
:101D100081E090E002C0880F991F4A95E2F79C6825
:101D2000AE01F4E056954795FA95E1F74370942B90
:101D30002C2F2F702695269550E2259F9001112477
:101D4000822B932B83C0C11526E5D207E8F5C11578
:101D500045E5D40748F08C2F0E94E50A8F7190E08A
:101D6000982F8827906272C0C11554E5D50728F0D6
:101D70009C2F8827846F906A69C08C2F86958695E2
:101D8000AE0143705527C115D34578F490E2899F81
:101D90009001112481E090E002C0880F991F4A95BC
:101DA000E2F7822B932B9C6851C090E2899F9001AF
:101DB000112481E090E002C0880F991F4A95E2F754
:101DC000822B932B9A6842C0C1152AE5D20780F571
:101DD000C11549E5D40718F18C2F8F700E94E50AD0
:101DE0009E0194E0369527959A95E1F72F7030E0A3
:101DF000322F22273069A901482B0FC0CE019056FF
:101E00008115904208F58D2F8F710E94E50A9E0181
:101E1000332730628F71A901582BCA0117C0C11531
:101E200058E5D50788F09C2F8827806F906A0EC0F0
:101E3000C1158BE5D80740F0C1159CE5D907F0F630
:101E4000CE019927906602C080E090E0DF91CF91AB
:101E5000089580E290E090930701809306018091BD
:101E6000590281110EC00E94FD2781E08093590222
:101E70002FEF83ED90E3215080409040E1F700C0C8
:101E8000000064E670E080E40E940328909307015C
:101E900080930601892B09F04EC064E670E080E073
:101EA0000E945A289093070180930601892B09F01C
:101EB00042C064E670E080E00E945A2890930701D7
:101EC00080930601892BB9F564E670E08FE30E94E8
:101ED0005A289093070180930601892B61F50E948F
:101EE000AF2864E670E080E40E9403289093070125
:101EF00080930601892BF9F464E670E08CE00E947F
:101F00005A289093070180930601892BA1F464E677
:101F100070E080E00E945A289093070180930601A8
:101F2000892B49F464E670E08FE30E945A2890936D
:101F30000701809306010E94AF2880910601089551
:101F4000CF93DF9356985E9825982D9826982E98D3
:101F500027982F98C8E8D0E08FEF90E09983888386
:101F6000AAE8B0E011969C938E93ECE8F0E09183A0
:101F70008083259A2D9A2FEF80E792E021508040B0
:101F80009040E1F700C00000269A2E9A2FEF80E7DC
:101F900092E0215080409040E1F700C00000279A75
:101FA0002F9A2FEF80E792E0215080409040E1F798
:101FB00000C0000025982D982FEF80E792E0215077
:101FC00080409040E1F700C0000026982E982FEF47
:101FD00080E792E0215080409040E1F700C000008F
:101FE00027982F988091600287702FEF829FC00101
:101FF0001124959587959595879599279983888339
:1020000011969C938E939183808356985E98259821
:102010002D9826982E9827982F98DF91CF91089584
:10202000EF92FF920F931F93CF93DF9380919002D3
:1020300080FF06C0C1E8D3E0DE0140E050E00EC002
:1020400080E090E0FC01EF57FC4F11821082128279
:10205000138204968C339105A9F7ECCFFA01EF5760
:10206000FC4F92812C913181822F921708F4892F95
:10207000381708F4832F8383381B3183281B2C9354
:10208000981B92834C5F5F4F14964C33510531F788
:102090000E94FD2764E670E084E80E94032800E0C7
:1020A00010E0C8018F579C4F7C0164E670E0FC0192
:1020B00080810E945A2864E670E0F70181810E94C5
:1020C0005A2864E670E0F70182810E945A2864E68B
:1020D00070E0F70183810E945A280C5F1F4F0C3378
:1020E0001105F9F60E94AF28579A8BB18F779BB1F3
:1020F00090682FB7F894F3E0CD3BDF0789F0399172
:1021000048E09BB9000000C037FF8BB9330F0000D7
:1021100000C000C000C08BB900C04A9591F7EBCF5A
:102120002FBF8FE391E00197F1F700C00000DF912E
:10213000CF911F910F91FF90EF900895E0E9F2E0A9
:1021400080818E7F808360817181828193810E94F2
:10215000200C109296022FEF80E792E021508040F1
:102160009040E1F700C000000C941010CF92DF9275
:10217000EF92FF920F931F936B017C01AC016627D6
:102180007727411551056105710511F080E103C004
:10219000B701A60180E0052F162F272F3327011541
:1021A00011052105310519F0885FB901A8018A01DF
:1021B0009B01F4E03695279517950795FA95D1F789
:1021C000011511052105310519F08C5FB901A80130
:1021D0008A019B01E2E03695279517950795EA95C8
:1021E000D1F7011511052105310519F08E5FB901EF
:1021F000A8017695679557954795452B462B472B14
:1022000009F08F5F56985E9825982D9826982E98FD
:1022100027982F98482F50E0FA013197E730F105C1
:10222000C8F4E358FF4F0C943129259A2D9A27C002
:10223000269A2E9A33C0259A2D9A269A2E9A3FC016
:10224000259A2D9A04C0259A2D9A269A2E9A279A75
:102250002F9A35C0813099F018F08230F9F02FC0F4
:1022600080915002811153C00E94990C60E081E07E
:102270000E945E0C20E04DE76FEF80E81DC080916A
:102280005002811144C00E94990C60E081E00E94DC
:102290005E0C20E04FEF6FEF8FE30EC08091500295
:1022A000811135C00E94990C60E081E00E945E0CB3
:1022B00020E04FEF6FEF80E00E94312328C0809133
:1022C0005002811124C088E090E00E94BB286093F6
:1022D0009002709391028093920290939302862FC2
:1022E00060FF13C081608093900286950E94A20CCB
:1022F0008091900286950E94A20C21E04091930269
:102300006091920280919102D7CF0E949E10C701E6
:10231000B6011F910F91FF90EF90DF90CF9008953D
:1023200084B1807F84B985B1807F85B98AB1837F8C
:102330008AB98BB1837F8BB93E984698089580B354
:102340008C7080BB81B3836F81BB08959F92AF92E5
:10235000BF92CF92DF92EF92FF920F931F93CF9392
:10236000DF938091060190910701892B91F0809174
:1023700058028F5F8093580281110BC00E94290F71
:1023800090E09093070180930601892B11F40E943D
:10239000A00F04E612E02BE6E22E22E0F22E680106
:1023A000C0E0912C97E0A92EAC0E8C2F0E946A0BF6
:1023B0008A2D0E946A0B8C2F0E94BE0BF601908121
:1023C000981721F08083BB24B39401C0B12C8A2DCF
:1023D0000E94BE0BF7019081981719F0808381E06D
:1023E00001C080E0B82A9B280E949011CF5FFFEFC8
:1023F000CF1ADF0A8FEFE81AF80AC73099F60E9461
:10240000C7186AEF70E00E9409299C01682F80912B
:1024100057028823E9F110925702E0915A02F09195
:102420005B02DF011E9690E07BEF8AEFE82EF12C35
:1024300080818B3FA9F0482F50E0681728F0E90110
:10244000C41BD50BAE0106C06701C41AD50AA6018C
:10245000420F531F4E31510514F0708301C091E0BB
:102460003196EA17FB0721F790935702911002C0AB
:10247000911110C010925602A0915A02B0915B02C5
:1024800090915702ECE7F2E080E03EE03E0F07C09B
:102490009110F0CF809156028111ECCF16C0E80167
:1024A00029918E014081421741F04C914B3F21F41C
:1024B0006C93208391E001C081E0119631963E1328
:1024C000EECF9093570280935602892DDF91CF91E2
:1024D0001F910F91FF90EF90DF90CF90BF90AF9042
:1024E0009F9008952091E4003091E50095E6409199
:1024F000EC00842F817040FF22C08091E80080FDB5
:102500001CC080917403882391F0853091F08091F4
:10251000EB0085FD10C04091E4005091E5004217AA
:10252000530729F39A01915011F784E0089582E04E
:10253000089583E0089581E0089580E00895409132
:10254000E80042FFDECF08958091760387FF11C037
:102550008091E80082FD05C0809174038111F8CF5D
:1025600011C08091E8008B770BC0809174038823A1
:1025700049F08091E80080FFF8CF8091E8008E77E5
:102580008093E8000895982F973058F59093E900CC
:10259000981739F07091EC002091ED005091F00007
:1025A00003C0242F762F50E021FF19C03091EB009B
:1025B0003E7F3093EB003091ED003D7F3093ED0096
:1025C0003091EB0031603093EB007093EC0020937E
:1025D000ED005093F0002091EE0027FF07C09F5FB1
:1025E000D3CF8F708093E90081E0089580E0089553
:1025F00020917C0330917D032617370748F0611541
:10260000710539F42091E8002E772093E80001C08D
:10261000B90140E061157105A9F1209174032223ED
:1026200009F443C0253009F442C02091E80023FD9D
:1026300040C02091E80022FD32C02091E80020FF38
:10264000E9CF4091F3002091F20030E0342BFC01FF
:10265000CF016115710559F02830310540F48191A1
:102660008093F100615071092F5F3F4FF1CF41E03E
:102670002830310509F040E02091E8002E772093C2
:10268000E800C8CF4111C9CF0AC0809174038823E4
:1026900061F0853061F08091E80083FD0AC080918F
:1026A000E80082FFF2CF80E0089582E0089583E0A1
:1026B000089581E0089580917403843011F081E0E1
:1026C000089582E00895CF93DF93CDB7DEB72C97BE
:1026D0000FB6F894DEBF0FBECDBF84B7877F84BF2F
:1026E0000FB6F894A895809160008861809360008F
:1026F000109260000FBE90E080E80FB6F8948093CF
:102700006100909361000FBE85B7806885BF85B773
:10271000806885BF0E94BC1E0E94DB1E8091E20083
:1027200084608093E2007894809174038823A1F000
:102730001091E9001F709091EC00892F817090FD3D
:1027400080E8182B1092E9008091E80083FD0E9438
:10275000A51B1F701093E90082E084BD93E095BD36
:102760009AEF97BD80936E000E94290F90E090939E
:102770000701809306010E9490110E949F11A4E618
:10278000B2E0ECE7F2E06EE0D62EDE0E11921D9282
:10279000DE12FCCF8EE090E00E94432980935A0223
:1027A00090935B02FC010E962BEF2193E817F9073B
:1027B000E1F780E090E00E94C1288F3E9E4F11F02B
:1027C0000E9486198CE090E00E94B32890E0A0E07F
:1027D000B0E080935C0290935D02A0935E02B093A0
:1027E0005F0289EA8093800089E0809381002498C9
:1027F0002C983F988AB18F7C8AB96E98479A8BB192
:1028000080638BB9769A8FE090E00E94BB2860933A
:10281000600270936102809362029093630267701A
:102820003FEF639FB0011124759567957595679586
:102830007727709389006093880070938B00609372
:102840008A0070938D0060938C000E94A00F80E03E
:1028500090E00E94C1288F3E9E4F11F00E94861981
:1028600082E090E00E94B3288093A1020E94751933
:10287000909373028093720283E090E00E94B328E9
:10288000682F70E080E090E00E945A1B80917402F3
:10289000811136C080E090E00E94C1288F3E9E4F9B
:1028A00021F00E9486190E94B80C88E090E00E94F6
:1028B000BB28609390027093910280939202909350
:1028C00093026E7F71F40E94B80C88E090E00E9441
:1028D000BB28609390027093910280939202909330
:1028E00093020E940D0C109296028091900280FF3C
:1028F00004C060E086950E945E0C81E080937402C3
:1029000060917502709176028091770290917802C1
:102910000E94B61088E091E090937A028093790249
:1029200040E3E42E44E0F42E80917403853009F0F6
:1029300065C080917403843009F441C010927B0219
:1029400020E488E190E00FB6F894A89580936000A9
:102950000FBE209360001092960280914F03811168
:1029600017C081E080934F0380919002982F91705F
:1029700090934E038E7F80939002FFEF20E732E02A
:10298000F15020403040E1F700C000000E941010DC
:1029900083B7817F846083BF83B7816083BF78946E
:1029A000889583B78E7F83BF0FB6F894A8958091E2
:1029B0006000886180936000109260000FBE80917B
:1029C0007303882309F4B0CF0E94290F90E09093FD
:1029D0000701809306010E9490110E949F11ECE76D
:1029E000F2E01192DE12FDCF0E94A611ECE7F2E0B8
:1029F0008191811170C1DE12FBCF96CF0E94A6118A
:102A0000E2EAF2E0ACE7B2E000E010E0302F2D9116
:102A10009191922721F180E0CC24C3944C2D49233D
:102A2000D1F089833A832C2181E009F480E08B8303
:102A30000E94C7188160782F9D838C8349815A81B9
:102A40006B818D810E94B721F801EE55FD4F808189
:102A5000C826C08219C08F5FCC0C8630F9F60F5F94
:102A60001F4F0E30110591F68FEF8E838F831886DE
:102A70000E94C7188160782F9A8789874E815F816D
:102A800068858A850E94B72180919602882309F47F
:102A90008FC080919502E0919002E695E81BE0934B
:102AA0008C02823049F4F0E0E25CFB4FE4910E2F9F
:102AB00010E023EA31E248C0863049F4F0E0E55CFA
:102AC000FB4FE4910E2F10E023E931E23DC0893045
:102AD00051F4E695F0E0E85CFB4FE4910E2F10E036
:102AE0002FE130E231C08F3051F4E695F0E0EB5C3D
:102AF000FB4FE4910E2F10E024E131E225C0853137
:102B000049F4F0E0EE5CFB4FE4910E2F10E026EB71
:102B100030E21AC0883179F0833231F4F70105913F
:102B200014912FEE32E210C0843251F404EF11E020
:102B300029E430E209C008EE13E021E830E204C0E5
:102B400000ED17E02EE130E280918D028823A9F09C
:102B500010928D022B873C870E94C718A8014095D0
:102B60005095840F951F90938B0280938A02109248
:102B70008F0210928E023C852B8580918A02909163
:102B80008B022B873C870E949D182B853C858017E4
:102B9000910770F0E0918A02F0918B020E0F1F1FD7
:102BA00010938B0200938A028AE892E0F90109955A
:102BB00080919E0290919F020E949D189C0190918D
:102BC0009D02992321F02431310508F478C08091C9
:102BD000990210919A0281110BC0111192C020919B
:102BE0009B0221118EC020919C0221118AC067C0D6
:102BF0009F3F19F09F5F90939D02181624F40E9446
:102C0000EC17809399028091990287FF05C00E947A
:102C1000EC17819580939902111624F40E94EC1709
:102C200080939A0280919A0287FF05C00E94EC1758
:102C3000819580939A02309199023323E1F020919B
:102C40009A022223C1F045EB3403C0011124892FDD
:102C5000990F990B009709F481E08093990235EB65
:102C60002303C0011124892F990F990B009709F4B0
:102C700081E080939A0280919B02181624F40E94AE
:102C8000CA1780939B0280919B0287FF05C00E9418
:102C9000CA17819580939B0280919C02181624F498
:102CA0000E94CA1780939C0280919C0287FF05C0F6
:102CB0000E94CA17819580939C020E94D31810919C
:102CC000A0020E94B722181709F42ECE0E94B72244
:102CD0008093A00229CE80E189BD82E189BD09B43B
:102CE00000FEFDCF8091D8008F7D8093D800809129
:102CF000E00082608093E0008091E00081FDFCCFE5
:102D000013CE9F3F09F076CF7ECF80915103089577
:102D1000CF93DF9300D01F92CDB7DEB790917403AD
:102D2000943019F589837B836A8382E08093E9007C
:102D30008FEF9091E800815095FD06C095ED9A9532
:102D4000F1F700008111F5CF8091E80085FF0DC0FB
:102D500040E050E063E070E0CE0101960E946E1BFF
:102D60008091E8008E778093E8000F900F900F908D
:102D7000DF91CF910895CF93DF93EC010E945B1315
:102D8000823011F0843031F4BE0184E0DF91CF91C4
:102D90000C948816DF91CF910895BC016058710999
:102DA00083E00C948816CF93DF93EC010E945B13B1
:102DB000823011F08430F9F482E08093E9009FEFD3
:102DC0008091E800915085FD06C085ED8A95F1F768
:102DD00000009111F5CF8091E80085FF0CC040E024
:102DE00050E066E070E0CE010E946E1B8091E8002A
:102DF0008E778093E800DF91CF910895CF93DF9392
:102E0000EC010E945B13823011F08430D9F580917F
:102E10001201882339F08091720287FF03C060E2BB
:102E200082E002C068E081E08093E9008FEF90913A
:102E3000E800815095FD06C095ED9A95F1F70000E8
:102E40008111F5CF8091E80085FF1CC080911201AF
:102E5000811105C040E050E068E070E003C070E020
:102E600040E050E0CE010E946E1B8091E8008E771A
:102E70008093E80080E2FE01A2E5B3E001900D92AC
:102E80008A95E1F7DF91CF910895803F39F48091E1
:102E90009A0287FF6CC010929A0269C0813F29F4A0
:102EA00080919A021816BCF362C090919902823FF9
:102EB00029F497FF5CC01092990259C0833F19F41E
:102EC0001916CCF354C0893F41F480919B02181627
:102ED0000CF04DC010929B024AC08A3F29F48091A9
:102EE0009B0287FF44C0F6CF8B3F39F480919C0250
:102EF00087FF3DC010929C023AC08C3F29F480911C
:102F00009C021816BCF333C0843F21F480919802D0
:102F10008E7F17C0853F21F4809198028D7F11C06C
:102F2000863F21F4809198028B7F0BC0873F21F46C
:102F300080919802877F05C0883F31F48091980284
:102F40008F7E8093980213C08D3F21F480914C03B3
:102F50008E7F0BC08E3F21F480914C038D7F05C086
:102F60008F3F29F480914C038B7F80934C03809199
:102F7000990281110EC080919A0281110AC080913C
:102F80009B02811106C080919C02811102C01092A7
:102F90009D02089580914C0380FD16C081FD16C0EE
:102FA00082FD18C080919D02882391F0883290F4B0
:102FB00028E0829FC001112468E270E00E941D2970
:102FC000862F672B29F007C082E0089584E00895DA
:102FD00081E0089588E0089580914C0380FD17C03A
:102FE00081FD17C082FD19C080919D02882399F050
:102FF0008C3398F423E2829FC00111246CE370E0CB
:103000000E941D29862F672B49F481E0089588E0EE
:10301000089581E1089585E0089583E20895803F51
:1030200021F40E94EC17819504C0813F29F40E948D
:10303000EC1780939A020895823F21F40E94EC17C6
:10304000819504C0833F29F40E94EC178093990274
:103050000895893F19F40E94CA1705C08A3F31F4C8
:103060000E94CA17819580939B0208958B3F21F49B
:103070000E94CA17819504C08C3F29F40E94CA1788
:1030800080939C020895843F21F48091980281608E
:1030900017C0853F21F480919802826011C0863F5D
:1030A00021F48091980284600BC0873F21F48091C5
:1030B0009802886005C0883F31F480919802806151
:1030C0008093980208958D3F21F480914C03816094
:1030D0000BC08E3F21F480914C03826005C08F3F6E
:1030E00029F480914C03846080934C030895789474
:1030F0001F920F920FB60F9211248F939F93AF934D
:10310000BF938091480390914903A0914A03B091E5
:103110004B030196A11DB11D809348039093490371
:10312000A0934A03B0934B03BF91AF919F918F91AE
:103130000F900FBE0F901F901895CF92DF92EF92D5
:10314000FF920F931F932FB7F8944091480350912B
:10315000490360914A0370914B032FBF6A017B01C1
:10316000EE24FF248C0120E030E0C016D106E206F8
:10317000F30610F4415051099A01281B390BC9017B
:103180001F910F91FF90EF90DF90CF9008952FB790
:10319000F8948091480390914903A0914A03B0911B
:1031A0004B032FBF0895E0917902F0917A02309796
:1031B00049F082E0809397020480F581E02D87E951
:1031C00092E009950E94C71890939F0280939E02F7
:1031D00008951F920F920FB60F9211248F939F9311
:1031E000AF93BF9380917B02811113C080914803FC
:1031F00090914903A0914A03B0914B034196A11DC0
:10320000B11D8093480390934903A0934A03B09360
:103210004B03BF91AF919F918F910F900FBE0F9075
:103220001F90189520911201222321F02091720203
:1032300027FD04C0FC013296089619C0262F26955A
:10324000269526952E31C0F4FC01E20FF11D677022
:1032500081E090E001C0880F6A95EAF7809592813D
:103260008923828308953196E817F90729F0208190
:103270002613F9CF1082F7CF08952091120122234F
:1032800021F02091720227FD05C0FC0132962FEF3C
:1032900030E019C0262F2695269526952E3120F54B
:1032A000FC01E20FF11D677081E090E001C0880F22
:1032B0006A95EAF79281892B828308952F3F39F02E
:1032C0003F5F363041F041914613F8CF0DC04111B8
:1032D000F7CF232FF5CF2F3F39F0FC01E20FF11D7F
:1032E00027FDFA95628308950895CF9384E090E0D6
:1032F0000E94B328C82F81E290E00E94B3282C2FAF
:1033000030E0A901582BCA01CF9108956FEE7EEFEE
:1033100080E090E00E94E52860E082E090E00E947A
:10332000C72860E083E090E00E94C7281092440321
:1033300010924503109246031092470360E084E028
:1033400090E00E94C72860E081E290E00E94C728D8
:1033500060E085E090E00E94C72860E086E090E0B1
:103360000E94C7286FEF87E090E00E94C72840E0E6
:1033700050E0BA0188E090E00E94D92860E08DE03A
:1033800090E00E94C72840E050E0BA0188E190E058
:103390000E94D92860E087E190E00E94C72840E0C1
:1033A00050E0BA018CE190E00E94D92860E080E210
:1033B00090E00E94C7281092600210926102109261
:1033C00062021092630284E0806180936002409107
:1033D00060025091610260916202709163028FE01D
:1033E00090E00E94D92840E050E0BA0183E190E0EB
:1033F0000C94D928809143038111109243030895BE
:103400009091410380914203892B20914003982F92
:10341000922B9093B002809143038823D9F0892B9B
:103420008093B00280911201882331F08091720262
:1034300087FF02C08EE101C086E0E2EBF2E090E09F
:10344000815028F021912223D9F39F5FF9CF911168
:103450000E94FA19E0917902F0917A023097A9F06E
:1034600080911201882359F08091720287FF07C072
:103470008091B0028093B10285E08093B002028017
:10348000F381E02D80EB92E009940895BF92CF92F2
:10349000DF92EF92FF920F931F93CF93DF938C01F4
:1034A000C0904403D0904503E0904603F09047035A
:1034B0008091750290917602A0917702B091780286
:1034C000C82AD92AEA2AFB2ACFE1D0E0D701C601CF
:1034D0000C2E04C0B695A795979587950A94D2F7B8
:1034E00080FF07C0BC2EB8018C2F0E947F0D019772
:1034F00019F4219758F7B12C8B2DDF91CF911F91A3
:103500000F91FF90EF90DF90CF90BF900895CF93F1
:10351000DF93EC010E94461ABE010E947F0DDF91ED
:10352000CF910895292F220F920F990F890F682F9D
:10353000669566956695982F977085E0689FB001AF
:10354000112440E050E080E0FA01E60FF71FE85F49
:10355000FC4F208130E0092E02C0369527950A9451
:10356000E2F721703327042E01C0220F0A94EAF7F4
:10357000822B4F5F5F4F4530510531F70895292F5A
:10358000220F920F990F890FA82FA695A695A695A1
:10359000877051E001C0550F8A95EAF785E0A89F32
:1035A000D001112420E030E070E0F901EA0FFB1FA8
:1035B000E85FFC4F4081CB01022E02C096958795B3
:1035C0000A94E2F7817099278195842785238427BF
:1035D00080832F5F3F4F2530310539F708950E94D2
:1035E000B610609375027093760280937702909381
:1035F00078020C949C260F931F9341E050E060E00A
:1036000070E004C0440F551F661F771F8A95D2F7DC
:1036100040955095609570958091750290917602D5
:10362000A0917702B09178028A019B0108231923A7
:103630002A233B23C901B8011F910F910C94EF1A63
:1036400020913F038095822380933F03982F9770AA
:1036500079F430E0482F082E000C550B241735075D
:1036600039F08595859585950E94FB1A10923F0348
:1036700008950F931F9341E050E060E070E004C0B4
:10368000440F551F661F771F8A95D2F780917502E8
:1036900090917602A0917702B09178028A019B0105
:1036A000082B192B2A2B3B2BC901B8011F910F9115
:1036B0000C94EF1A60934403709345038093460380
:1036C000909347030C949C26809107039091D60217
:1036D000891719F08F5F8770FBCF0895CF92DF9223
:1036E000FF920F931F93CF93DF931F92CDB7DEB757
:1036F000F82E8B0199830E947212998181111CC04E
:10370000CF2CD92E01151105B1F08091E80085FD6F
:103710000AC08091E8008E778093E8000E947212C0
:10372000882381F309C0F60181916F018093F10034
:1037300001501109E7CF80E00F90DF91CF911F91E9
:103740000F91FF90DF90CF9008951F93CF93DF9359
:10375000CDB7DEB7AA970FB6F894DEBF0FBECDBFC8
:10376000E6E7F3E088E08E0F9091F10091938E13DD
:10377000FBCF80917703833009F460C030F481304F
:1037800071F0823009F49AC0B1C08A3009F486C061
:103790008B3009F46BC0893009F0A8C020C080913B
:1037A0007603813A09F0A2C08091E800877F809378
:1037B000E80080917A0390917B03892B21F460E2E9
:1037C00082E593E003C060E080E090E070E00E945A
:1037D000F8128091E8008B778093E80087C0809191
:1037E0007603813209F082C080917A0390917B0345
:1037F000029708F07BC08091E800877F8093E80003
:103800008091E80082FD05C0809174038111F8CF9A
:103810006DC02091F3008091F20090E0922B02970E
:1038200029F48091F1008B7F813021F48091F100A7
:10383000809351038091E8008B7754C08091760388
:10384000813A09F053C080917A0390917B03892BD0
:1038500009F04CC08091E800877F8093E800809158
:10386000E80080FFFCCF8091120137C08091760381
:103870008132E1F580917A0390917B03892BB1F538
:103880008091E800877F8093E8000E94A4128091D5
:103890007803809312010E94B72628C08091760396
:1038A000813221F58091E800877F8093E8000E94B3
:1038B000A412809179038093500318C080917603FD
:1038C000813AA1F48091E800877F8093E80080919D
:1038D000E80080FFFCCF809150038093F10080913D
:1038E000E8008E778093E8000E94A4128091E8009F
:1038F00083FFD6C18091760390917703492F50E0E2
:103900004A30510508F0CCC1FA01EC57FF4F0C9436
:103910003129803821F0823809F0C2C108C0809175
:10392000720390917303992389F082600FC0809194
:103930007A038F70873008F0B3C18093E9008091DB
:10394000EB0085FB882780F91092E9009091E80050
:10395000977F9093E8008093F1001092F10074C17A
:10396000282F2D7F09F09CC1882319F0823061F047
:1039700097C180917803813009F092C1933009F0AA
:1039800080E0809373032EC08091780381112AC058
:1039900080917A038F702FEF280F263008F080C1B6
:1039A0008093E9002091EB0020FF1CC0933021F4AC
:1039B0008091EB00806214C09091EB009061909335
:1039C000EB0021E030E0A90102C0440F551F8A95A9
:1039D000E2F74093EA001092EA008091EB008860E1
:1039E0008093EB001092E9008091E800877F2FC15F
:1039F000811156C1109178031F778091E300807880
:103A0000812B8093E3008091E800877F8093E8001A
:103A10000E94A4128091E80080FFFCCF8091E30017
:103A200080688093E300111102C082E001C083E04E
:103A30008093740335C18058823008F031C1809181
:103A40007803909179038C3D53E0950779F583E0F5
:103A50008A838AE289834FB7F894DE01139620E0C7
:103A60003EE051E2E32FF0E050935700E49120FF55
:103A700003C0E295EF703F5FEF708E2F90E0EA3069
:103A800010F0C79601C0C0968D939D932F5F24318F
:103A900049F74FBF8091E800877F8093E8006AE292
:103AA00070E0CE0101960E94F812BDC040917A03E9
:103AB00050917B03292F332723303105B9F06CF463
:103AC0002130310509F4FBC02230310509F0E8C08E
:103AD0008BE390E0E2E4F5E054C02132310509F4D3
:103AE00033C02232310509F43CC0DAC09927813055
:103AF0009105D1F05CF4892B09F0D2C0E7EBF5E039
:103B0000E4918E2F90E0E7EBF5E038C0823091052C
:103B100099F0039709F0C4C0EFE8F5E0E4918E2F27
:103B200090E0EFE8F5E02AC0EDEAF5E0E4918E2FB1
:103B300090E0EDEAF5E022C0E5E9F5E0E4918E2FB2
:103B400090E0E5E9F5E01AC04115510509F4BCC063
:103B50004130510509F0A4C089E090E0EDE6F5E0C0
:103B600010C04115510509F4B4C04130510509F0A8
:103B700097C080EC90E0E2E4F4E003C0009709F421
:103B80008FC02091E800277F2093E80020917C03DC
:103B900030917D032817390708F4C90140E00097E8
:103BA00089F120917403222309F43DC02530D9F115
:103BB0002091E80023FD37C02091E80022FD2FC0AE
:103BC0002091E80020FFEBCF4091F3002091F2001C
:103BD00030E0342B009759F02830310540F44491FF
:103BE0004093F100319601972F5F3F4FF3CF41E0B3
:103BF0002830310509F040E02091E8002E7720932D
:103C0000E800CDCF4111CDCF0AC080917403882345
:103C100051F0853041F08091E80083FD04C080912F
:103C2000E80082FFF2CF8091E8008B778093E80074
:103C300037C08038A9F58091E800877F8093E8003D
:103C4000809175038093F1008091E8008E778093D6
:103C5000E8000E94A41224C0811122C010917803B0
:103C60001230F0F48091E800877F8093E800109391
:103C700075030E94A412111106C08091E30087FD14
:103C800002C081E001C084E08093740342E061ECF3
:103C900081E00E94C31242E261EC82E00E94C31202
:103CA0008091E80083FF1AC08091E800877F8093AD
:103CB000E8008091EB0080628093EB000FC082E10E
:103CC00090E0EDE7F5E05DCF89E090E0E4E5F5E038
:103CD00058CF80E490E0E2E0F5E053CFAA960FB62B
:103CE000F894DEBF0FBECDBFDF91CF911F91089535
:103CF0001F920F920FB60F9211242F933F934F9361
:103D00005F936F937F938F939F93AF93BF93CF9363
:103D1000DF93EF93FF93C091E900CF708091EC00A7
:103D2000D82FD17080FDD0E81092E9008091F0008A
:103D3000877F8093F00078940E94A51B1092E90081
:103D40008091F00088608093F000CD2BCF70C093FD
:103D5000E900FF91EF91DF91CF91BF91AF919F91DA
:103D60008F917F916F915F914F913F912F910F9024
:103D70000FBE0F901F901895E8EDF0E080818E7FC8
:103D800080831092E2001092DA001092E100A0EE1F
:103D9000B0E08C9181608C9380818F77808319BC97
:103DA000A7EDB0E08C918E7F8C9380818F7E808395
:103DB00010924D030895CF92DF92EF92FF920F93EE
:103DC0001F93CF93DF93C8EDD0E088818F7E8883E7
:103DD000E7EDF0E080818160808384E082BF81E054
:103DE00080934D0388818E7F888302EE10E0F80176
:103DF00010821092DA0081EEC82ED12CF6011082CA
:103E000088818F77888388818068888388818F7D87
:103E1000888319BC10927403109275031092730377
:103E20001092720390EEE92EF12CF70180818B7FC6
:103E3000808388818160888342E060E080E00E9426
:103E4000C312F60180818E7F8083F80180818160BA
:103E50008083808188608083F70180818E7F80836A
:103E6000888180618883DF91CF911F910F91FF90AE
:103E7000EF90DF90CF9008951F920F920FB60F92A0
:103E800011242F933F934F935F936F937F938F935F
:103E90009F93AF93BF93EF93FF938091E10082FFD5
:103EA00009C08091E20082FF05C08091E1008B7F14
:103EB0008093E1008091DA0080FF2AC08091D800D1
:103EC00080FF26C08091DA008E7F8093DA00809197
:103ED000D90080FF18C080E189BD82E189BD09B4A5
:103EE00000FEFDCF81E08093740380914D0381112A
:103EF0000FC00E94BC1E0E94DB1E8091E200846005
:103F00008093E20005C019BC1092740310924D0317
:103F10008091E10080FF17C08091E20080FF13C014
:103F20008091E2008E7F8093E2008091E2008061C8
:103F30008093E2008091D80080628093D80019BC01
:103F400085E0809374038091E10084FF3BC0809101
:103F5000E20084FF37C080E189BD82E189BD09B4F8
:103F600000FEFDCF8091D8008F7D8093D800809196
:103F7000E1008F7E8093E1008091E2008F7E80934C
:103F8000E2008091E20081608093E20080917503FD
:103F9000882311F084E007C08091E30087FD02C010
:103FA00081E001C083E0809374030E94B7260E94E1
:103FB000B72210924F0380914E0381110E94990CF9
:103FC0000E943A248091E10083FF27C08091E200A3
:103FD00083FF23C08091E100877F8093E10082E02E
:103FE00080937403109275038091E1008E7F80931B
:103FF000E1008091E2008E7F8093E2008091E200F8
:1040000080618093E20042E060E080E00E94C312A1
:104010008091F00088608093F000FF91EF91BF9154
:10402000AF919F918F917F916F915F914F913F9150
:104030002F910F900FBE0F901F9018950895EF923B
:10404000FF921F93CF93DF93EC0181E8E82E83E08A
:10405000F82E10E08C8197014091930260919202BA
:10406000810F0E94C70C1F5E84E0E80EF11C1F3F09
:1040700089F70E9410108A819C8180FF02C09F5F97
:1040800001C091509C83DF91CF911F91FF90EF90E1
:104090000895EF92FF920F931F93CF93DF937C01CC
:1040A000C1E8D3E000E010E0F7018481073011059A
:1040B0001CF4882339F002C0811104C09E01409194
:1040C000930202C09E0140E06091920280919102B1
:1040D0000E94C70C0F5F1F4F24960F30110521F768
:1040E0000E941010F701248130E02F5F3F4F2170B4
:1040F00033272483DF91CF911F910F91FF90EF9091
:104100000895EF92FF920F931F93CF93DF93EC01EB
:104110002C813D812F5F3F4F217033273D832C83BE
:1041200081E8E82E83E0F82E10E005E5812F8695E2
:104130004C815D81480F511D842F81709701409102
:10414000930260919202809F802D11240E94C70CDF
:104150001F5F84E0E80EF11C1F3041F7DF91CF9123
:104160001F910F91FF90EF900C9410100F931F93DD
:10417000CF93DF9380E090E0FC01EF57FC4F11827A
:1041800010821282138204968C339105A9F7C0E045
:10419000D0E00FE010E0CE01B8010E941D29FC0123
:1041A00080917F03082E000C990BEE0FFF1FEE0F7E
:1041B000FF1FC817D907A4F080911F01082E000C1B
:1041C000990B8C179D0764F09F012F573C4F40912E
:1041D000930260919202809191020E94C70C06C0E6
:1041E000EF57FC4F11821082128213822196CF303A
:1041F000D10589F60E94101080911E0190917F03D5
:10420000980F90937F0320911F01280F20931F0187
:10421000121614F49E301CF0819580931E01DF91DC
:10422000CF911F910F9108959F92AF92BF92CF921D
:10423000DF92EF92FF920F931F93CF93DF93FC01D6
:10424000828180FF03C0BB24BA9402C0BB24B39414
:1042500021E8E22E23E0F22E04E813E0C0E0D0E0F3
:104260003FE0932EF80132971082F7011082F80197
:1042700031971082F801108294E0C92ED12CA12C24
:1042800080917E038A0D80312CF0692D0E94FB28DD
:10429000892F02C087FD815F082E000C990BC8177B
:1042A000D90791F4809193028C9DA0018D9D500DB2
:1042B0001124559547955595479597016091920220
:1042C000809191020E94C70CAB0CF1E0CF1AD1088B
:1042D000B9F6219684E0E80EF11C0C5F1F4FCF3039
:1042E000D10509F0BFCF0E94101080917E0391E0AC
:1042F000B91206C0811102C08EE007C0815005C00E
:1043000090E00196BE010E941D2980937E03DF91FB
:10431000CF911F910F91FF90EF90DF90CF90BF90C2
:10432000AF909F900895CF93DF93EC01E0E9F2E026
:10433000438162818C810E945E0D8C818F5F8C83B2
:10434000DF91CF910895CF93DF93EC01EC81F0E002
:10435000E054FA4F4491E0E9F2E0628181810E94E9
:104360005E0D8C818F5F8C83DF91CF910895EF92EA
:10437000FF920F931F93CF93DF93CDB7DEB767976D
:104380000FB6F894DEBF0FBECDBF4B8B5C8B6D8B31
:104390007E8B8F8B0E891F8901151105C1F15F3F3F
:1043A00011F44F3FA1F1E42EF12CA1E0B0E0042E76
:1043B00001C0AA0F0A94EAF7852F90E0662319F04E
:1043C0002091D20306C09C012D533C4FF90120815E
:1043D0002A232223A9F046E0489F9001499F300DEF
:1043E0001124F701E20FF31FEE0FFF1FEA58FE4FF3
:1043F00040815181FC01ED53FC4F9081A92B06C0F7
:10440000FC01ED53FC4FA0958081A823A08386E09A
:10441000FE013D96DF01982F1D929A95E9F74D8791
:104420005E876F87198B088BDE01179601900D92BE
:104430008A95E1F7CE0107960E94D224811137C0F8
:1044400086E0FE013796DE01119601900D928A9565
:10445000E1F7FF81E8856A857B856115710539F192
:10446000EF3F11F4FF3F19F12091D60230E0C9016E
:104470000196877099274091070350E084179507AC
:1044800079F1F983EA837D836C8396E0929FD00172
:10449000939FB00D1124A952BD4FFE01319601909A
:1044A0000D929A95E1F78093D6020E94641B16E064
:1044B000809107039091D602891701F1189FC001DE
:1044C000112489529D4F0E94D2248823B9F08091F3
:1044D000070390E001968770992780930703E8CF40
:1044E0000E94B7261092D60210920703E0EDF2E088
:1044F00086E0DF011D928A95E9F7D9CF67960FB65E
:10450000F894DEBF0FBECDBFDF91CF911F910F9109
:10451000FF90EF9008952091C1033091C20382175C
:10452000930771F09093C2038093C103E0917902E5
:10453000F0917A02309721F00084F185E02D099402
:1045400008952091BF033091C0038217930771F043
:104550009093C0038093BF03E0917902F0917A02B7
:10456000309721F00680F781E02D09940895E091BD
:104570007902F0917A02309721F00190F081E02DDC
:10458000099480E008959091900290FF04C0969560
:10459000981740F003C0811105C090E0961710F401
:1045A0000C94AE0C0C94A20C882311F0FA0101C0FB
:1045B000FB0109949091900290FF10C020E030E040
:1045C000F901EF57FC4F81836083428313822C5F94
:1045D0003F4F2C333105A1F70C94101008950F9321
:1045E0001F93CF93DF9300D000D0CDB7DEB78C01FF
:1045F0008091800381110AC09E012F5F3F4F4FEFD2
:104600006FEF0E94C70C8A8180938003F801848138
:10461000813051F028F0823061F4409180030AC06B
:104620008091800340E007C06091800340E080E01B
:1046300003C040E080E060E00E94DA22F8012481BB
:1046400030E0C901019663E070E00E941D29848377
:104650000F900F900F900F90DF91CF911F910F91BE
:1046600008955F926F927F928F929F92AF92BF92C6
:10467000CF92DF92EF92FF920F931F93CF93DF932E
:1046800000D000D0CDB7DEB7182F762E042F622EC3
:104690009091900290FF6DC0E92FE695AE2FB0E0AB
:1046A000AF5ABE4F8C91809395029E7F923061F4F9
:1046B0009E012F5F3F4F812F0E94C70C4B81698164
:1046C0008A810E94DA2243C0823019F40091930259
:1046D0003EC0863019F41091910239C08930D9F367
:1046E0008931A9F5E9518E2F8170582EE695F0E0B9
:1046F000E554FA4FA590B49081E8C82E83E0D82EF7
:10470000E12CF12CBB249FE0892E912CEA9CC00166
:10471000EB9C900DFA9C900D1124B4010E94092984
:10472000812F511002C0860F01C0861B9601402FB9
:10473000672D0E94C70C8FEFE81AF80A84E0C80EB4
:10474000D11C8FE0E816F10409F70E9410101093B5
:1047500091027092920200939302662051F0609150
:1047600090027091910280919202909193020E9426
:10477000200C0F900F900F900F90DF91CF911F9111
:104780000F91FF90EF90DF90CF90BF90AF909F90F0
:104790008F907F906F905F9008950F931F93CF93AA
:1047A000DF93C62FD42F022FFC0182818823C9F00A
:1047B000609352020E94C7189093BE038093BD037A
:1047C00080E28C0F883008F050C0C77081E001C0D3
:1047D000880FCA95EAF7DF91CF911F910F910C9442
:1047E000EC2610915202161330C08091BD039091B7
:1047F000BE030E949D18883C910538F5C0E2CD0F9C
:104800001D17B9F080E2810F883040F4177081E005
:1048100001C0880F1A95EAF70E94E126C83048F4D3
:1048200081E09D2F977001C0880F9A95EAF70E944A
:10483000EC26802F0E945D27C830B8F4D77081E045
:1048400001C0880FDA95EAF70AC080E28C0F883041
:1048500060F4C77081E001C0880FCA95EAF7DF9164
:10486000CF911F910F910C94E126DF91CF911F9171
:104870000F91089560919002669570E04BE050E0D2
:1048800083E191E00E94702A892B19F481E08093E2
:1048900096020E94C71890938B0280938A02089513
:1048A0008091D50282958F7009F054C08091D20218
:1048B000882309F44FC080910703A091D60260912C
:1048C000D0027091D1024091D3025091D402B6E04F
:1048D0008A1709F43FC090E041155105C1F17F3FAF
:1048E00011F46F3FA1F1B89FF001B99FF00D1124B1
:1048F000E952FD4F218172132AC02081621327C023
:104900002281211124C0238134812417350710F41A
:1049100021503109241B350B283C3105C0F420916E
:10492000D5022F7020612093D50226E0289FF00148
:10493000299FF00D1124E452FD4F80818F7080611A
:10494000808380ED92E00E947F030C94641B0196AB
:104950008770BECF08950E94871A292F2F709295D5
:104960009F70E92FF0E03297EE30F105B8F4E2578E
:10497000FF4F0C943129803F99F018F4883E70F471
:104980000FC0843F59F40CC0883E50F0813F31F491
:1049900007C0822F869586958695089580E00895B4
:1049A00081E00895BF92CF92DF92EF92FF920F9332
:1049B0001F93CF93DF93CDB7DEB761970FB6F8940F
:1049C000DEBF0FBECDBF8C0185E0F801DE011D9674
:1049D00001900D928A95E1F7D8013C9111962C91A6
:1049E00011971296EC9012971396CD90DC90149735
:1049F0005091D0026091D1028091D3029091D40263
:104A0000009709F44FC16F3F19F45F3F09F44AC1A1
:104A1000B090D202BB2009F4ECC04091D502C81678
:104A2000D90628F0F601E81BF90BCF0104C08095E8
:104A300090958C0D9D1DFF24F394883C910548F0C2
:104A4000F12C407F09F09FC080ED92E00E947F032F
:104A500021C1842F807F09F044C0621312C0531318
:104A600010C0E1100EC04F7040614093D50280ED40
:104A700092E00E947F038091D502D80115968C9315
:104A80002EC0CD2819F12F3F11F43F3FF9F0FE2C35
:104A9000E1101CC0809107034091D60256E08417B4
:104AA00009F458C090E0589FF001599FF00D11246F
:104AB000E952FD4F6181261306C06081361303C0A1
:104AC0006281611103C001968770E9CFFE2CEE2050
:104AD00009F421C18091D50281608093D502F12C27
:104AE0001AC162130AC0531308C0E11006C08091B6
:104AF000D502D80115968C93B0C03D872E878D8541
:104B00009E850E94AB248823D1F1EE20C1F1209133
:104B1000D502822F82958F7090E0029774F0809179
:104B2000D0029091D10298878F831986DB86CA863E
:104B30002C87CE0107960E947F0386E0F801A0ED46
:104B4000B2E001900D928A95E1F70E945024FF2473
:104B5000F394E1C03D872E878D859E850E94871A3C
:104B6000292F22952F7030E0223031050CF0C7C07C
:104B70009F7009F0C1C0805E883008F4CCC0C801C5
:104B80000E947F03E4CF621314C0531312C0E110DC
:104B900010C08091D502F8018583C8010E947F036F
:104BA00086E0E0EDF2E0DF011D928A95E9F7FB2C4B
:104BB000B2C03D872E878D859E850E94AB248823B9
:104BC000F1F2EE20E1F22091D502822F82958F70D2
:104BD00090E002970CF4B1CF8091D0029091D10275
:104BE0009A8389831B82DD82CC822E83CE0101963B
:104BF000A2CFC816D90638F0C81AD90AB8ECCB1615
:104C0000D10450F007C0809590958C0D9D1D883C77
:104C1000910510F0F12C3EC0FE2CEE2009F4AFCF30
:104C2000621327C0531325C02091D50220FD18C060
:104C3000822F82958F70482F50E04115510581F0E9
:104C4000F80125834F30510541F08F5F982F9295E1
:104C5000907F822F8F70892B8583C8010E947F03EC
:104C600086E0F801A0EDB2E001900D928A95E1F79F
:104C700052C03D872E878D859E850E94AB24811171
:104C80005CCF8091D50281608093D502C8010E94DB
:104C90007F0341C0E0EDF2E086E0DF011D928A95DE
:104CA000E9F739C0EE2009F46ACF3D872E878D855C
:104CB0009E850E94AB24F82E882309F460CF86E0FD
:104CC000F801A0EDB2E001900D928A95E1F7809194
:104CD000D0029091D1020E94871A92959F709630CF
:104CE00041F48091D20391E089278093D20390937D
:104CF000D1030E9450240FC081113DCF0CC024303D
:104D000031050CF03CCF9F7009F435CFF801958147
:104D1000907F09F030CF8F2D61960FB6F894DEBFEB
:104D20000FBECDBFDF91CF911F910F91FF90EF90FC
:104D3000DF90CF90BF9008951092410310924003EE
:104D40000E94001AE7E9F2E086E0DF011D928A95F1
:104D5000E9F710929D0210924C030E94D31880E054
:104D600090E00E94A12280E090E00C948B221092AF
:104D7000420380911201882331F08091720287FFF3
:104D800002C08EE101C086E0E2EBF2E0DF011D929D
:104D90008A95E9F70C949C26882341F080959091A0
:104DA00041038923809341030C94001A08958823BA
:104DB00039F090914103892B809341030C94001AA0
:104DC0000895882341F08095909142038923809330
:104DD00042030C94001A0895882339F090914203FD
:104DE000892B809342030C94001A0895882309F4B8
:104DF00063C0823869F40E94B72281FF5DC069E315
:104E000080EB92E00E943D190E94001A69E30EC0F7
:104E1000833891F40E94B72280FF4EC063E580EB97
:104E200092E00E943D190E94001A63E580EB92E037
:104E30000E9412190C94001A843869F40E94B72257
:104E400082FF3AC067E480EB92E00E943D190E9425
:104E5000001A67E4EBCF9CEF980F913A10F4682F9B
:104E6000E5CF90E2980F983088F4877021E030E029
:104E7000A90102C0440F551F8A95E2F7CA01809527
:104E800090914203892380934203D4CF9BE5980FEE
:104E9000933020F480E090E00C94A12298E5980FE4
:104EA000973120F480E090E00C948B22803F20F03A
:104EB0000E9445170C94D3180895CF93C82F0E94D1
:104EC0007027C93349F42FEF87EE93E021508040DB
:104ED0009040E1F700C000008C2FCF910C94F62693
:104EE000882309F489C08238B1F40E94B72281FD79
:104EF00083C069E380EB92E00E943D190E94001A92
:104F00002FEF41EE54E0215040405040E1F700C007
:104F1000000069E317C08338D9F40E94B72280FDEE
:104F20006BC063E580EB92E00E943D190E94001A7D
:104F30008FEF91EE24E0815090402040E1F700C0D7
:104F4000000063E580EB92E00E9412190C94001AB5
:104F50008438B1F40E94B72282FD4EC067E480EB32
:104F600092E00E943D190E94001A4FEF51EE84E03A
:104F7000415050408040E1F700C0000067E4E2CFBC
:104F80009CEF980F913A30F4682F80EB92E00E94EA
:104F90003D19DCCF90E2980F983080F4877021E0C3
:104FA00030E0A90102C0440F551F8A95E2F7CA01FB
:104FB00090914203892B80934203C8CFEBE5E80F21
:104FC000E33038F4F0E0E25EFD4F808190E00C9435
:104FD000A122E8E5E80FE73148F4F0E0EE0FFF1F0B
:104FE000EF5DFD4F808191810C948B22803F20F0FA
:104FF0000E940F180C94D31808951092B9008CE0F9
:105000008093B8000895EF92FF920F931F93CF9370
:10501000DF93182FEB011092BC0084EA8093BC0050
:105020000E94C7187C019091BC0097FD0EC0CF3F35
:105030008FEFD807C1F30E94C7188E199F098C17EC
:105040009D0788F38EEF9FEF2EC09091B900987F57
:10505000983041F09091B900987F903119F08FEF1E
:105060009FEF21C01093BB0084E88093BC000E9496
:10507000C7188C019091BC0097FD0CC0CF3F8FEFFB
:10508000D807C1F30E94C718801B910B8C179D078E
:1050900088F3D8CF8091B900887F883111F08034AF
:1050A000F1F680E090E0DF91CF911F910F91FF909A
:1050B000EF9008950F931F93CF93DF93EB018093AD
:1050C000BB0084E88093BC000E94C7188C019091BB
:1050D000BC0097FD0EC0CF3F8FEFD807C1F30E94F1
:1050E000C718801B910B8C179D0788F38EEF9FEFDD
:1050F0000CC02091B900287F81E090E0283211F4A3
:1051000080E090E0919581959109DF91CF911F9179
:105110000F9108950F931F93CF93DF93EC0184E8D1
:105120008093BC000E94C7188C019091BC0097FD31
:105130000EC0CF3F8FEFD807C1F30E94C718801B66
:10514000910B8C179D0788F38EEF9FEF03C0809122
:10515000BB0090E0DF91CF911F910F91089584E9FA
:105160008093BC000895F999FECF92BD81BDF89A55
:10517000992780B50895A6E1B0E044E050E00C9492
:10518000ED28A8E1B0E042E050E00C94ED28262F95
:10519000F999FECF92BD81BDF89A019700B402162D
:1051A00039F01FBA20BD0FB6F894FA9AF99A0FBEDB
:1051B00008950396272F0E94C8280E94C728252FEC
:1051C0000E94C828242F0C94C8280196272F0E94DB
:1051D000C8280C94C728DC01CB01FC01F999FECF4B
:1051E00006C0F2BDE1BDF89A319600B40D9241506F
:1051F0005040B8F7089587FB082E062687FD819555
:1052000067FD61950E9437290EF4919507FC819501
:105210000895AA1BBB1B51E107C0AA1FBB1FA617FD
:10522000B70710F0A61BB70B881F991F5A95A9F74F
:1052300080959095BC01CD01089597FB072E16F43B
:10524000009407D077FD09D00E94092907FC05D0FA
:105250003EF4909581959F4F0895709561957F4F8D
:105260000895EE0FFF1F0590F491E02D0994991B0E
:1052700079E004C0991F961708F0961B881F7A954D
:10528000C9F780950895CF93DF938230910510F48C
:1052900082E090E0E091D503F091D60320E030E089
:1052A000C0E0D0E0309711F1408151814817590793
:1052B000C0F04817590761F482819381209719F053
:1052C0009B838A832BC09093D6038093D50326C0FB
:1052D0002115310519F04217530718F49A01BE0140
:1052E000DF01EF010280F381E02DDCCF21153105D4
:1052F00009F1281B390B2430310590F412968D9159
:105300009C9113976115710521F0FB0193838283B2
:1053100004C09093D6038093D503FD01329644C018
:10532000FD01E20FF31F81939193225031092D93D8
:105330003C933AC02091D3033091D403232B41F402
:1053400020910201309103013093D4032093D303C1
:1053500020910001309101012115310541F42DB753
:105360003EB74091040150910501241B350BE0919B
:10537000D303F091D403E217F307A0F42E1B3F0BE5
:105380002817390778F0AC014E5F5F4F24173507B7
:1053900048F04E0F5F1F5093D4034093D303819383
:1053A000919302C0E0E0F0E0CF01DF91CF9108954A
:1053B0000F931F93CF93DF93009709F48CC0FC01E8
:1053C0003297138212820091D5031091D6030115F2
:1053D000110581F420813181820F931F2091D30325
:1053E0003091D4032817390779F5F093D403E0936B
:1053F000D30371C0D80140E050E0AE17BF0750F4AE
:1054000012962D913C911397AD012115310509F1AB
:10541000D901F3CF9D01DA01338322836081718149
:10542000860F971F8217930769F4EC012881398151
:10543000260F371F2E5F3F4F318320838A819B8148
:1054400093838283452B29F4F093D603E093D5030D
:1054500042C01396FC93EE931297ED014991599136
:105460009E01240F351FE217F30771F480819181AB
:10547000840F951F029611969C938E93828193813F
:1054800013969C938E931297E0E0F0E0D801129669
:105490008D919C911397009719F0F8018C01F6CF2C
:1054A0008D919C9198012E5F3F4F820F931F209109
:1054B000D3033091D4032817390769F4309729F4BE
:1054C0001092D6031092D50302C013821282109359
:1054D000D4030093D303DF91CF911F910F910895CF
:1054E000FC014150504030F001900616D1F7319741
:0E54F000CF010895882799270895F894FFCFDB
:1054FE000000D703200020008516FE16D316CD1609
:10550E00BB160101191A1B1C1D1E1F202122010290
:10551E00818283E200E900EA00B500B600B700CD53
:10552E00008301CC008A01920194012102230224FE
:10553E00022502260227022A02B300B4006F007071
:10554E0000000102020202060606090909090909FC
:10555E000F0F0F0F0F0F15151518191919191919F6
:10556E00191919192324000D010D020D030D040D37
:10557E00050D000C010C020C030C040C050C000BA9
:10558E00010B020B030B040B050B000A010A020AA6
:10559E00030A040A050A000901090209030904099C
:1055AE000509000801080208030804080508000799
:1055BE000107020703070407050700060106020696
:1055CE00030604060506000501050205030504058C
:1055DE000505000401040204030404040504000389
:1055EE000103020303030403050300020102020286
:1055FE00030204020502000101010201030104017C
:10560E000501000001000200030004000500818274
:10561E0083E200E900EA00B500B600B700CD0083D2
:10562E0001CC008A01920194012102230224022559
:10563E0002260227022A02B300B4006F0070000097
:00000001FF
